Loading packages
Loading input files
Rows: 10446 Columns: 12
── Column specification ────────────────────────────────────────────────────────
Delimiter: "\t"
chr (8): chr, name, strand, spacer, target_chr, target_name, target_strand, ...
dbl (4): start, end, target_start, target_end

ℹ Use `spec()` to retrieve the full column specification for this data.
ℹ Specify the column types or set `show_col_types = FALSE` to quiet this message.
Preparing gene and perturbation coordinates
Calculating distances efficiently by chromosome
Processing chromosome: chr10
Processing chromosome: chr1
Processing chromosome: chr11
Processing chromosome: chr12
Processing chromosome: chr13
Processing chromosome: chr14
Processing chromosome: chr15
Processing chromosome: chr16
Processing chromosome: chr17
Processing chromosome: chr18
Processing chromosome: chr19
Processing chromosome: chr20
Processing chromosome: chr21
Processing chromosome: chr2
Processing chromosome: chr22
Processing chromosome: chr3
Processing chromosome: chr4
Processing chromosome: chr5
Processing chromosome: chr6
Processing chromosome: chr7
Processing chromosome: chr8
Processing chromosome: chr9
Processing chromosome: chrX
Combining all pairs
Adding target type information
Saving distance information for filtered pairs
Reporting all missing pairs
Found 2 targets without any genes within 2MB:

Breakdown by target type:

enh 
  2 

Full list of targets without genes:
              target_name target_type
1  chr7:80790600-80791471         enh
2 chr13:70257983-70258483         enh

Found 366 genes without any targets within 2MB:
               gene     gene_name gene_chr gene_start  gene_end
1   ENSG00000162600          OMA1     chr1   59012474  59012474
2   ENSG00000162601         MYSM1     chr1   59165764  59165764
3   ENSG00000177606           JUN     chr1   59249999  59249999
4   ENSG00000172456          FGGY     chr1   59762310  59762310
5   ENSG00000036549          ZZZ3     chr1   78149104  78149104
6   ENSG00000077254         USP33     chr1   78225537  78225537
7   ENSG00000180488         MIGA1     chr1   78245309  78245309
8   ENSG00000162613         FUBP1     chr1   78444794  78444794
9   ENSG00000162616        DNAJB4     chr1   78444859  78444859
10  ENSG00000273338 RP11-386I14.4     chr1   78470238  78470238
11  ENSG00000185946         RNPC3     chr1  104068313 104068313
12  ENSG00000230880  RP11-417J8.3     chr1  142618769 142618769
13  ENSG00000203849  RP11-417J8.6     chr1  142729967 142729967
14  ENSG00000234978  RP11-423O2.5     chr1  142816004 142816004
15  ENSG00000232274  RP11-782C8.2     chr1  143211070 143211070
16  ENSG00000230850  RP11-782C8.1     chr1  143119061 143119061
17  ENSG00000232336  RP11-782C8.3     chr1  143188828 143188828
18  ENSG00000225278  RP11-782C8.5     chr1  143240439 143240439
19  ENSG00000242569  RP11-435B5.3     chr1  143347958 143347958
20  ENSG00000238261  RP11-435B5.5     chr1  143377281 143377281
21  ENSG00000185630          PBX1     chr1  164524821 164524821
22  ENSG00000143207         RFWD2     chr1  176176629 176176629
23  ENSG00000092978       GPATCH2     chr1  217804424 217804424
24  ENSG00000067533         RRP15     chr1  218458629 218458629
25  ENSG00000228033    AC010967.2     chr2   53137158  53137158
26  ENSG00000066032        CTNNA2     chr2   79412357  79412357
27  ENSG00000162951        LRRTM1     chr2   80531874  80531874
28  ENSG00000082438        COBLL1     chr2  165700189 165700189
29  ENSG00000187231        SESTD1     chr2  180129517 180129517
30  ENSG00000144445       KANSL1L     chr2  211036107 211036107
31  ENSG00000115365        LANCL1     chr2  211342376 211342376
32  ENSG00000021826          CPS1     chr2  211342406 211342406
33  ENSG00000144451        SPAG16     chr2  214149103 214149103
34  ENSG00000151092         NGLY1     chr3   25831530  25831530
35  ENSG00000151093          OXSM     chr3   25824408  25824408
36  ENSG00000033867        SLC4A7     chr3   27525911  27525911
37  ENSG00000225548     LINC01980     chr3   27844253  27844253
38  ENSG00000187118          CMC1     chr3   28283075  28283075
39  ENSG00000163512          AZI2     chr3   28390618  28390618
40  ENSG00000189283          FHIT     chr3   61237133  61237133
41  ENSG00000272690     LINC02018     chr3   75484499  75484499
42  ENSG00000227124        ZNF717     chr3   75834734  75834734
43  ENSG00000184500         PROS1     chr3   93692910  93692910
44  ENSG00000169379        ARL13B     chr3   93698983  93698983
45  ENSG00000178700         DHFR2     chr3   93782233  93782233
46  ENSG00000178694         NSUN3     chr3   93781760  93781760
47  ENSG00000169251          NMD3     chr3  160822484 160822484
48  ENSG00000241369     LINC01192     chr3  163079351 163079351
49  ENSG00000198398       TMEM207     chr3  190167665 190167665
50  ENSG00000196083        IL1RAP     chr3  190231840 190231840
51  ENSG00000152492        CCDC50     chr3  191046866 191046866
52  ENSG00000253548         PYDC2     chr3  191178952 191178952
53  ENSG00000223812  RP11-197K6.1     chr3  191275113 191275113
54  ENSG00000137449         CPEB2     chr4   15004298  15004298
55  ENSG00000048342        CC2D2A     chr4   15471489  15471489
56  ENSG00000145147         SLIT2     chr4   20254883  20254883
57  ENSG00000163138        PACRGL     chr4   20697905  20697905
58  ENSG00000151806          GUF1     chr4   44680444  44680444
59  ENSG00000163281        GNPDA2     chr4   44728612  44728612
60  ENSG00000272936 RP11-700J17.2     chr4   44706422  44706422
61  ENSG00000163285        GABRG1     chr4   46126098  46126098
62  ENSG00000109184       DCUN1D4     chr4   52709166  52709166
63  ENSG00000150471        ADGRL3     chr4   62066976  62066976
64  ENSG00000163633       C4orf36     chr4   87857354  87857354
65  ENSG00000172493          AFF1     chr4   87856154  87856154
66  ENSG00000145332         KLHL8     chr4   88161466  88161466
67  ENSG00000198189      HSD17B11     chr4   88312538  88312538
68  ENSG00000170502         NUDT9     chr4   88343734  88343734
69  ENSG00000249001 RP11-742B18.1     chr4   88655108  88655108
70  ENSG00000118777         ABCG2     chr4   89152474  89152474
71  ENSG00000163644         PPM1K     chr4   89205921  89205921
72  ENSG00000145337         PYURF     chr4   89444964  89444964
73  ENSG00000138641         HERC3     chr4   89442199  89442199
74  ENSG00000177432        NAP1L5     chr4   89619386  89619386
75  ENSG00000248019    FAM13A-AS1     chr4   89630940  89630940
76  ENSG00000138640        FAM13A     chr4   90032549  90032549
77  ENSG00000180346         TIGD2     chr4   90032651  90032651
78  ENSG00000145335          SNCA     chr4   90759466  90759466
79  ENSG00000138653         NDST4     chr4  116035032 116035032
80  ENSG00000269893         SNHG8     chr4  119199864 119199864
81  ENSG00000260404  RP11-384K6.6     chr4  119512928 119512928
82  ENSG00000145388       METTL14     chr4  119606523 119606523
83  ENSG00000150961        SEC24D     chr4  119759838 119759838
84  ENSG00000145390         USP53     chr4  120133742 120133742
85  ENSG00000164096        C4orf3     chr4  120225600 120225600
86  ENSG00000164168      TMEM184C     chr4  148538534 148538534
87  ENSG00000164169         PRMT9     chr4  148605381 148605381
88  ENSG00000071205      ARHGAP10     chr4  148653214 148653214
89  ENSG00000181381        DDX60L     chr4  169458937 169458937
90  ENSG00000145439          CBR4     chr4  169931426 169931426
91  ENSG00000137601          NEK1     chr4  170533780 170533780
92  ENSG00000109572         CLCN3     chr4  170533784 170533784
93  ENSG00000056050          HPF1     chr4  170679104 170679104
94  ENSG00000198948        MFAP3L     chr4  170954182 170954182
95  ENSG00000248131     LINC01194     chr5   12574969  12574969
96  ENSG00000039139         DNAH5     chr5   13944652  13944652
97  ENSG00000038382          TRIO     chr5   14143811  14143811
98  ENSG00000261360 CTD-2165H16.4     chr5   14664713  14664713
99  ENSG00000154124        OTULIN     chr5   14664773  14664773
100 ENSG00000154122          ANKH     chr5   14871887  14871887
101 ENSG00000173545        ZNF622     chr5   16465901  16465901
102 ENSG00000248223 CTD-2139B15.2     chr5   17354019  17354019
103 ENSG00000251487  RP11-124N3.2     chr5   19038908  19038908
104 ENSG00000145526         CDH18     chr5   20575982  20575982
105 ENSG00000251629 RP11-774D14.1     chr5   20611949  20611949
106 ENSG00000154162         CDH12     chr5   22853731  22853731
107 ENSG00000164256         PRDM9     chr5   23443695  23443695
108 ENSG00000251273 RP11-549K20.1     chr5   25190765  25190765
109 ENSG00000250337     LINC01021     chr5   27472399  27472399
110 ENSG00000081189         MEF2C     chr5   88200074  88200074
111 ENSG00000248309     MEF2C-AS1     chr5   88179145  88179145
112 ENSG00000113391       FAM172A     chr5   93447404  93447404
113 ENSG00000248483        POU5F2     chr5   93077343  93077343
114 ENSG00000133302          SLF1     chr5   93954052  93954052
115 ENSG00000198677         TTC37     chr5   94890711  94890711
116 ENSG00000164291          ARSK     chr5   94890778  94890778
117 ENSG00000175449         RFESD     chr5   94982458  94982458
118 ENSG00000164292       RHOBTB3     chr5   95049226  95049226
119 ENSG00000173221          GLRX     chr5   95158709  95158709
120 ENSG00000118985          ELL2     chr5   95297775  95297775
121 ENSG00000153113          CAST     chr5   95860971  95860971
122 ENSG00000164307         ERAP1     chr5   96143803  96143803
123 ENSG00000247121 CTD-2260A17.2     chr5   96271513  96271513
124 ENSG00000164308         ERAP2     chr5   96211643  96211643
125 ENSG00000113441         LNPEP     chr5   96271098  96271098
126 ENSG00000152503        TRIM36     chr5  114516243 114516243
127 ENSG00000164219        PGGT1B     chr5  114598569 114598569
128 ENSG00000271797  CTC-428G20.6     chr5  114598202 114598202
129 ENSG00000164221       CCDC112     chr5  114632528 114632528
130 ENSG00000145780         FEM1C     chr5  114880591 114880591
131 ENSG00000134970         TMED7     chr5  114968689 114968689
132 ENSG00000145782         ATG12     chr5  115177555 115177555
133 ENSG00000177879         AP3S1     chr5  115177178 115177178
134 ENSG00000172901          LVRN     chr5  115298151 115298151
135 ENSG00000271918 CTD-2287O16.5     chr5  115421113 115421113
136 ENSG00000145781       COMMD10     chr5  115420688 115420688
137 ENSG00000248445    SEMA6A-AS1     chr5  115783243 115783243
138 ENSG00000113328         CCNG1     chr5  162864575 162864575
139 ENSG00000170584        NUDCD2     chr5  162887146 162887146
140 ENSG00000072571          HMMR     chr5  162887209 162887209
141 ENSG00000038274         MAT2B     chr5  162930120 162930120
142 ENSG00000241956  CTC-340A15.2     chr5  163723702 163723702
143 ENSG00000112679        DUSP22     chr6     291630    291630
144 ENSG00000198225        FKBP1C     chr6   63921351  63921351
145 ENSG00000112245        PTP4A1     chr6   64231653  64231653
146 ENSG00000118482          PHF3     chr6   64345725  64345725
147 ENSG00000112701         SENP6     chr6   76311225  76311225
148 ENSG00000196586          MYO6     chr6   76458909  76458909
149 ENSG00000025156          HSF2     chr6  122720691 122720691
150 ENSG00000111897       SERINC1     chr6  122792967 122792967
151 ENSG00000135549          PKIB     chr6  122793076 122793076
152 ENSG00000172594       SMPDL3A     chr6  123110194 123110194
153 ENSG00000008018         PSMB1     chr6  170862429 170862429
154 ENSG00000112592           TBP     chr6  170863390 170863390
155 ENSG00000071994         PDCD2     chr6  170893780 170893780
156 ENSG00000213863 XX-C2158C12.2     chr6  171034285 171034285
157 ENSG00000225532  XX-C2158C6.3     chr6  171046865 171046865
158 ENSG00000205628     LINC01446     chr7   53879624  53879624
159 ENSG00000132432        SEC61G     chr7   54827667  54827667
160 ENSG00000224057      EGFR-AS1     chr7   55256627  55256627
161 ENSG00000132434        LANCL2     chr7   55433141  55433141
162 ENSG00000154978         VOPP1     chr7   55640681  55640681
163 ENSG00000178665        ZNF713     chr7   55955168  55955168
164 ENSG00000146729          GBAS     chr7   56019486  56019486
165 ENSG00000239789        MRPS17     chr7   56019512  56019512
166 ENSG00000146733          PSPH     chr7   56119297  56119297
167 ENSG00000146731         CCT6A     chr7   56119323  56119323
168 ENSG00000129103         SUMF2     chr7   56131695  56131695
169 ENSG00000106153        CHCHD2     chr7   56174269  56174269
170 ENSG00000164675          IQUB     chr7  123175131 123175131
171 ENSG00000128609        NDUFA5     chr7  123198309 123198309
172 ENSG00000272338 RP11-722E23.2     chr8   33218933  33218933
173 ENSG00000172728         FUT10     chr8   33330940  33330940
174 ENSG00000129696          TTI2     chr8   33371119  33371119
175 ENSG00000198042         MAK16     chr8   33342268  33342268
176 ENSG00000253642 RP11-317N12.1     chr8   33462374  33462374
177 ENSG00000164808         SPIDR     chr8   48173167  48173167
178 ENSG00000221869         CEBPD     chr8   48651648  48651648
179 ENSG00000253729         PRKDC     chr8   48872743  48872743
180 ENSG00000104738          MCM4     chr8   48872745  48872745
181 ENSG00000169139        UBE2V2     chr8   48920960  48920960
182 ENSG00000254300     LINC01111     chr8   77318889  77318889
183 ENSG00000253661     ZFHX4-AS1     chr8   77595513  77595513
184 ENSG00000164751          PEX2     chr8   77913280  77913280
185 ENSG00000064313          TAF2     chr8  120845103 120845103
186 ENSG00000136982         DSCC1     chr8  120868250 120868250
187 ENSG00000187955       COL14A1     chr8  121072019 121072019
188 ENSG00000172172        MRPL13     chr8  121457642 121457642
189 ENSG00000172167          MTBP     chr8  121457640 121457640
190 ENSG00000238113     LINC01410     chr9   66457285  66457285
191 ENSG00000182021  RP11-381O7.3     chr9   67032072  67032072
192 ENSG00000232833       FAM27E3     chr9   67786624  67786624
193 ENSG00000225411  RP11-764K9.1     chr9   68409893  68409893
194 ENSG00000231242   RP11-87H9.3     chr9   69108793  69108793
195 ENSG00000204790         CBWD6     chr9   69269662  69269662
196 ENSG00000135002           RFK     chr9   79009433  79009433
197 ENSG00000197969        VPS13A     chr9   79792269  79792269
198 ENSG00000156052          GNAQ     chr9   80646374  80646374
199 ENSG00000148019         CEP78     chr9   80850978  80850978
200 ENSG00000135069         PSAT1     chr9   80912059  80912059
201 ENSG00000015171       ZMYND11    chr10     180405    180405
202 ENSG00000107929        LARP4B    chr10     977645    977645
203 ENSG00000107937        GTPBP4    chr10    1033959   1033959
204 ENSG00000204147        ASAH2B    chr10   52499078  52499078
205 ENSG00000177613        CSTF2T    chr10   53459351  53459351
206 ENSG00000227121 RP11-319F12.2    chr10   54735575  54735575
207 ENSG00000271933 RP11-338I21.1    chr10   85900338  85900338
208 ENSG00000165678         GHITM    chr10   85899196  85899196
209 ENSG00000229404     LINC00858    chr10   86039736  86039736
210 ENSG00000107771        CCSER2    chr10   86088342  86088342
211 ENSG00000108018        SORCS1    chr10  108924292 108924292
212 ENSG00000224023      FLJ37035    chr10  127408135 127408135
213 ENSG00000107938         EDRF1    chr10  127408084 127408084
214 ENSG00000188690          UROS    chr10  127511817 127511817
215 ENSG00000107949         BCCIP    chr10  127512115 127512115
216 ENSG00000089876         DHX32    chr10  127585005 127585005
217 ENSG00000203780         FANK1    chr10  127585108 127585108
218 ENSG00000171714          ANO5    chr11   22214722  22214722
219 ENSG00000183161         FANCF    chr11   22648333  22648333
220 ENSG00000198168          SVIP    chr11   22851845  22851845
221 ENSG00000254560     BBOX1-AS1    chr11   27241660  27241660
222 ENSG00000109881        CCDC34    chr11   27385415  27385415
223 ENSG00000205213          LGR4    chr11   27494322  27494322
224 ENSG00000148943         LIN7C    chr11   27528320  27528320
225 ENSG00000121621        KIF18A    chr11   28129855  28129855
226 ENSG00000169519       METTL15    chr11   28129795  28129795
227 ENSG00000152219       ARL14EP    chr11   30344598  30344598
228 ENSG00000196954         CASP4    chr11  104840163 104840163
229 ENSG00000204397        CARD16    chr11  104972158 104972158
230 ENSG00000255501        CARD18    chr11  105010453 105010453
231 ENSG00000170903       MSANTD4    chr11  105893130 105893130
232 ENSG00000182359        KBTBD3    chr11  105948492 105948492
233 ENSG00000149313      AASDHPPT    chr11  105946228 105946228
234 ENSG00000261098 RP11-819C21.1    chr11  107186997 107186997
235 ENSG00000152404       CWF19L2    chr11  107328570 107328570
236 ENSG00000137760        ALKBH8    chr11  107436472 107436472
237 ENSG00000008394         MGST1    chr12   16500076  16500076
238 ENSG00000139117         CPNE8    chr12   39301232  39301232
239 ENSG00000257718 RP11-396F22.1    chr12   39300253  39300253
240 ENSG00000139116        KIF21A    chr12   39837192  39837192
241 ENSG00000177119          ANO6    chr12   45609770  45609770
242 ENSG00000174106         LEMD3    chr12   65563351  65563351
243 ENSG00000139233          LLPH    chr12   66524548  66524548
244 ENSG00000155957        TMBIM4    chr12   66563852  66563852
245 ENSG00000127311          HELB    chr12   66696325  66696325
246 ENSG00000111530         CAND1    chr12   67663061  67663061
247 ENSG00000067715          SYT1    chr12   79257773  79257773
248 ENSG00000058272      PPP1R12A    chr12   80329240  80329240
249 ENSG00000258815 RP11-408B11.2    chr12   85711838  85711838
250 ENSG00000111145          ELK3    chr12   96588160  96588160
251 ENSG00000139618         BRCA2    chr13   32889611  32889611
252 ENSG00000244754       N4BP2L2    chr13   33113022  33113022
253 ENSG00000083642         PDS5B    chr13   33160564  33160564
254 ENSG00000133119          RFC3    chr13   34392186  34392186
255 ENSG00000120669        SOHLH2    chr13   36788752  36788752
256 ENSG00000242715       CCDC169    chr13   36871977  36871977
257 ENSG00000227674     LINC00355    chr13   64650144  64650144
258 ENSG00000226317     LINC00351    chr13   85937736  85937736
259 ENSG00000258081  RP11-384J4.2    chr14   27305934  27305934
260 ENSG00000257612     MIR4307HG    chr14   27342339  27342339
261 ENSG00000176165         FOXG1    chr14   29229536  29229536
262 ENSG00000258038 CTD-2384A14.1    chr14   29299450  29299450
263 ENSG00000258028 RP11-148E17.1    chr14   29406095  29406095
264 ENSG00000179476      C14orf28    chr14   45366498  45366498
265 ENSG00000179454        KLHL28    chr14   45511525  45511525
266 ENSG00000198718      TOGARAM1    chr14   45431411  45431411
267 ENSG00000185246        PRPF39    chr14   45553302  45553302
268 ENSG00000100442         FKBP3    chr14   45604522  45604522
269 ENSG00000187790         FANCM    chr14   45605143  45605143
270 ENSG00000129534      MIS18BP1    chr14   45722743  45722743
271 ENSG00000258700     LINC00871    chr14   46410146  46410146
272 ENSG00000165496        RPL10L    chr14   47121024  47121024
273 ENSG00000139915         MDGA2    chr14   48144157  48144157
274 ENSG00000166415         WDR72    chr15   54055075  54055075
275 ENSG00000137876       RSL24D1    chr15   55489265  55489265
276 ENSG00000171241        SHCBP1    chr16   46655538  46655538
277 ENSG00000069329         VPS35    chr16   46723430  46723430
278 ENSG00000091651          ORC6    chr16   46723555  46723555
279 ENSG00000140795         MYLK3    chr16   46824319  46824319
280 ENSG00000155330      C16orf87    chr16   46865323  46865323
281 ENSG00000166123          GPT2    chr16   46918290  46918290
282 ENSG00000069345        DNAJA2    chr16   47007699  47007699
283 ENSG00000171208         NETO2    chr16   47177908  47177908
284 ENSG00000129636         ITFG1    chr16   47498060  47498060
285 ENSG00000102893          PHKB    chr16   47495034  47495034
286 ENSG00000150394          CDH8    chr16   62070939  62070939
287 ENSG00000103035         PSMD7    chr16   74330673  74330673
288 ENSG00000259972    AC009120.6    chr16   74369244  74369244
289 ENSG00000090863          GLG1    chr16   74641042  74641042
290 ENSG00000168411         RFWD3    chr16   74700779  74700779
291 ENSG00000168404          MLKL    chr16   74734858  74734858
292 ENSG00000103091         WDR59    chr16   75034071  75034071
293 ENSG00000186187         ZNRF1    chr16   75032928  75032928
294 ENSG00000166816          LDHD    chr16   75150669  75150669
295 ENSG00000184517          ZFP1    chr16   75182390  75182390
296 ENSG00000050820         BCAR1    chr16   75301951  75301951
297 ENSG00000153774         CFDP1    chr16   75467383  75467383
298 ENSG00000166822      TMEM170A    chr16   75499395  75499395
299 ENSG00000205084       TMEM231    chr16   75590184  75590184
300 ENSG00000034713     GABARAPL2    chr16   75600249  75600249
301 ENSG00000065457         ADAT1    chr16   75657198  75657198
302 ENSG00000065427          KARS    chr16   75682541  75682541
303 ENSG00000166848       TERF2IP    chr16   75681684  75681684
304 ENSG00000152910       CNTNAP4    chr16   76311176  76311176
305 ENSG00000103111         MON1B    chr16   77224732  77224732
306 ENSG00000205078        SYCE1L    chr16   77233294  77233294
307 ENSG00000078142        PIK3C3    chr18   39535171  39535171
308 ENSG00000197372        ZNF675    chr19   23870022  23870022
309 ENSG00000196172        ZNF681    chr19   23941693  23941693
310 ENSG00000213967        ZNF726    chr19   24097678  24097678
311 ENSG00000213096        ZNF254    chr19   24216207  24216207
312 ENSG00000268362 CTD-2017D11.1    chr19   24216247  24216247
313 ENSG00000125827          TMX4    chr20    8000476   8000476
314 ENSG00000182621         PLCB1    chr20    8057898   8057898
315 ENSG00000132623        ANKEF1    chr20    9966774   9966774
316 ENSG00000125863          MKKS    chr20   10414870  10414870
317 ENSG00000149346        SLX4IP    chr20   10415951  10415951
318 ENSG00000089123         TASP1    chr20   13619587  13619587
319 ENSG00000089048          ESF1    chr20   13765532  13765532
320 ENSG00000101247       NDUFAF5    chr20   13765596  13765596
321 ENSG00000130684        ZNF337    chr20   25677477  25677477
322 ENSG00000166157          TPTE    chr21   11029719  11029719
323 ENSG00000154719        MRPL39    chr21   26979829  26979829
324 ENSG00000154723         ATP5J    chr21   27107984  27107984
325 ENSG00000154727         GABPA    chr21   27106881  27106881
326 ENSG00000100181        TPTEP1    chr22   17082777  17082777
327 ENSG00000172967          XKR3    chr22   17302589  17302589
328 ENSG00000237438         CECR7    chr22   17517460  17517460
329 ENSG00000182378        PLCXD1     chrX     192989    192989
330 ENSG00000178605        GTPBP6     chrX     230884    230884
331 ENSG00000226179     LINC00685     chrX     281725    281725
332 ENSG00000167393       PPP2R3B     chrX     347690    347690
333 ENSG00000130021          PUDP     chrX    7066231   7066231
334 ENSG00000198947           DMD     chrX   33357558  33357558
335 ENSG00000189023       MAGEB16     chrX   35816459  35816459
336 ENSG00000165164        CFAP47     chrX   35937851  35937851
337 ENSG00000198455          ZXDB     chrX   57618085  57618085
338 ENSG00000186767         SPIN4     chrX   62571223  62571223
339 ENSG00000204116         CHIC1     chrX   72783036  72783036
340 ENSG00000229807          XIST     chrX   73072588  73072588
341 ENSG00000225470           JPX     chrX   73164019  73164019
342 ENSG00000230590           FTX     chrX   73513409  73513409
343 ENSG00000131263          RLIM     chrX   73834452  73834452
344 ENSG00000131269         ABCB7     chrX   74376567  74376567
345 ENSG00000094841          UPRT     chrX   74493920  74493920
346 ENSG00000102390         PBDC1     chrX   75392771  75392771
347 ENSG00000085224          ATRX     chrX   77041755  77041755
348 ENSG00000102158         MAGT1     chrX   77151090  77151090
349 ENSG00000131174         COX7B     chrX   77154935  77154935
350 ENSG00000165240         ATP7A     chrX   77166153  77166153
351 ENSG00000102144          PGK1     chrX   77320685  77320685
352 ENSG00000187325         TAF9B     chrX   77395203  77395203
353 ENSG00000155008         APOOL     chrX   84258832  84258832
354 ENSG00000147180        ZNF711     chrX   84499038  84499038
355 ENSG00000124429         POF1B     chrX   84634748  84634748
356 ENSG00000188419           CHM     chrX   85302566  85302566
357 ENSG00000102271         KLHL4     chrX   86772752  86772752
358 ENSG00000179083       FAM133A     chrX   92929012  92929012
359 ENSG00000204086          RPA4     chrX   96138907  96138907
360 ENSG00000102362         SYTL4     chrX   99987110  99987110
361 ENSG00000101811         CSTF2     chrX  100075348 100075348
362 ENSG00000188917        TRMT2B     chrX  100307105 100307105
363 ENSG00000102384         CENPI     chrX  100353207 100353207
364 ENSG00000129682         FGF13     chrX  138304939 138304939
365 ENSG00000101974        ATP11C     chrX  139027435 139027435
366 ENSG00000155495        MAGEC1     chrX  140991680 140991680
Warning messages:
1: In obtain_pointer_vector(i = dt$i, dim = n_responses) :
  subscript out of bounds (index 686959735 >= vector size 686959735)
2: In obtain_pointer_vector(i = dt$i, dim = n_responses) :
  subscript out of bounds (index 5243081 >= vector size 5243081)
An object of class sceptre_object.

Attributes of the data:
	• 205584 cells
	• 12915 responses
	• High multiplicity-of-infection 
	• 10446 targeting gRNAs (distributed across 4993 targets) 
	• 0 non-targeting gRNAs 
	• 5 covariates (batch, grna_n_nonzero, grna_n_umis, response_n_nonzero, response_n_umis)

Analysis status:
	✓ import_data()
	✓ set_analysis_parameters()
	✗ assign_grnas()
	✗ run_qc()
	✗ run_calibration_check()
	✗ run_power_check()
	✗ run_discovery_analysis()

Analysis parameters: 
	• Discovery pairs: data frame with 137799 pairs
	• Positive control pairs: data frame with 0 pairs
	• Sidedness of test: both
	• Resampling mechanism: conditional resampling
	• gRNA integration strategy: union
	• Resampling approximation: skew normal
	• Multiple testing adjustment: BH at level 0.1
	• N nonzero treatment cells threshold: not specified
	• N nonzero control cells threshold: not specified
	• Formula object: log(response_n_nonzero) + log(response_n_umis) + log(grna_n_nonzero) + batchSaving output files
Closing log file
